{
  "contractName": "Payment",
  "abi": [
    {
      "inputs": [],
      "stateMutability": "nonpayable",
      "type": "constructor"
    },
    {
      "anonymous": false,
      "inputs": [
        {
          "indexed": false,
          "internalType": "address payable",
          "name": "_destinoTransferencia",
          "type": "address"
        },
        {
          "indexed": false,
          "internalType": "address",
          "name": "_origenTransferencia",
          "type": "address"
        },
        {
          "indexed": false,
          "internalType": "uint256",
          "name": "montoTransferencia",
          "type": "uint256"
        }
      ],
      "name": "TransferirMonto",
      "type": "event"
    },
    {
      "inputs": [
        {
          "internalType": "address payable",
          "name": "_destinoTransferencia",
          "type": "address"
        }
      ],
      "name": "nuevaTransaccion",
      "outputs": [
        {
          "internalType": "bool",
          "name": "",
          "type": "bool"
        }
      ],
      "stateMutability": "payable",
      "type": "function"
    },
    {
      "inputs": [],
      "name": "verBalanceCuenta",
      "outputs": [
        {
          "internalType": "uint256",
          "name": "",
          "type": "uint256"
        }
      ],
      "stateMutability": "payable",
      "type": "function"
    }
  ],
  "bytecode": "0x608060405234801561001057600080fd5b50336000806101000a81548173ffffffffffffffffffffffffffffffffffffffff021916908373ffffffffffffffffffffffffffffffffffffffff1602179055506102a3806100606000396000f3fe608060405260043610610046576000357c01000000000000000000000000000000000000000000000000000000009004806372e713ac1461004b578063e005f92014610069575b600080fd5b6100536100c3565b6040518082815260200191505060405180910390f35b6100ab6004803603602081101561007f57600080fd5b81019080803573ffffffffffffffffffffffffffffffffffffffff169060200190929190505050610103565b60405180821515815260200191505060405180910390f35b60008060009054906101000a900473ffffffffffffffffffffffffffffffffffffffff1673ffffffffffffffffffffffffffffffffffffffff1631905090565b600081600160006101000a81548173ffffffffffffffffffffffffffffffffffffffff021916908373ffffffffffffffffffffffffffffffffffffffff160217905550600160009054906101000a900473ffffffffffffffffffffffffffffffffffffffff1673ffffffffffffffffffffffffffffffffffffffff166108fc349081150290604051600060405180830381858888f193505050501580156101ae573d6000803e3d6000fd5b507ffc1ff50638c53d8cb428005e102107cffd2da1840abf5289da2981b8e99c6420600160009054906101000a900473ffffffffffffffffffffffffffffffffffffffff1660008054906101000a900473ffffffffffffffffffffffffffffffffffffffff1634604051808473ffffffffffffffffffffffffffffffffffffffff1681526020018373ffffffffffffffffffffffffffffffffffffffff168152602001828152602001935050505060405180910390a16001905091905056fea26469706673582212205ecfa2837aca8862a00e8121691adf87279bea434bc34457e7205f063d0d99fd64736f6c63430007000033",
  "immutableReferences": {},
  "source": "// SPDX-License-Identifier: GPL-3.0\n\npragma solidity 0.7.0;\n\ncontract Payment {\n    address origenTransferencia;\n    address payable destinoTransferencia;\n    uint montoTransferencia;\n    \n    constructor() public {\n        origenTransferencia = msg.sender;\n    }\n\n    event TransferirMonto(address payable _destinoTransferencia, address _origenTransferencia, uint montoTransferencia);\n    \n    function nuevaTransaccion(address payable _destinoTransferencia) public payable returns (bool){\n        destinoTransferencia = _destinoTransferencia;\n        destinoTransferencia.transfer(msg.value);\n        emit TransferirMonto(destinoTransferencia, origenTransferencia, msg.value);\n        return true;\n    }\n    function verBalanceCuenta() public payable returns (uint) {\n        return origenTransferencia.balance;\n    }\n}",
  "sourcePath": "/home/guille/Desktop/Projects/shopinchain/contracts/Payment.sol",
  "compiler": {
    "name": "solc",
    "version": "0.7.0+commit.9e61f92b.Emscripten.clang"
  },
  "schemaVersion": "3.3.4",
  "updatedAt": "2021-03-29T10:13:05.254Z",
  "devdoc": {
    "kind": "dev",
    "methods": {},
    "version": 1
  },
  "userdoc": {
    "kind": "user",
    "methods": {},
    "version": 1
  }
}